{
  "_format": "hh-sol-artifact-1",
  "contractName": "TwoFaContract",
  "sourceName": "contracts/TwoFaContract.sol",
  "abi": [
    {
      "inputs": [
        {
          "internalType": "uint256",
          "name": "_coolDownPeriodInSeconds",
          "type": "uint256"
        }
      ],
      "stateMutability": "nonpayable",
      "type": "constructor"
    },
    {
      "anonymous": false,
      "inputs": [
        {
          "indexed": true,
          "internalType": "address",
          "name": "userAddress",
          "type": "address"
        },
        {
          "indexed": false,
          "internalType": "uint256",
          "name": "otp",
          "type": "uint256"
        }
      ],
      "name": "OtpGenerated",
      "type": "event"
    },
    {
      "anonymous": false,
      "inputs": [
        {
          "indexed": true,
          "internalType": "address",
          "name": "userAddress",
          "type": "address"
        },
        {
          "indexed": false,
          "internalType": "string",
          "name": "username",
          "type": "string"
        },
        {
          "indexed": false,
          "internalType": "uint256",
          "name": "timestamp",
          "type": "uint256"
        }
      ],
      "name": "UserRegistered",
      "type": "event"
    },
    {
      "inputs": [
        {
          "internalType": "string",
          "name": "_username",
          "type": "string"
        },
        {
          "internalType": "address",
          "name": "_publicKey",
          "type": "address"
        },
        {
          "internalType": "uint256",
          "name": "_otp",
          "type": "uint256"
        }
      ],
      "name": "authenticate",
      "outputs": [
        {
          "internalType": "bool",
          "name": "",
          "type": "bool"
        }
      ],
      "stateMutability": "view",
      "type": "function"
    },
    {
      "inputs": [
        {
          "internalType": "string",
          "name": "_username",
          "type": "string"
        }
      ],
      "name": "generateOtp",
      "outputs": [
        {
          "internalType": "uint256",
          "name": "",
          "type": "uint256"
        }
      ],
      "stateMutability": "nonpayable",
      "type": "function"
    },
    {
      "inputs": [],
      "name": "getCoolDownPeriod",
      "outputs": [
        {
          "internalType": "uint256",
          "name": "",
          "type": "uint256"
        }
      ],
      "stateMutability": "view",
      "type": "function"
    },
    {
      "inputs": [
        {
          "internalType": "string",
          "name": "_username",
          "type": "string"
        }
      ],
      "name": "getUserDetails",
      "outputs": [
        {
          "components": [
            {
              "internalType": "address",
              "name": "userAddress",
              "type": "address"
            },
            {
              "internalType": "address",
              "name": "publicKey",
              "type": "address"
            },
            {
              "internalType": "uint256",
              "name": "otpSeed",
              "type": "uint256"
            },
            {
              "internalType": "uint256",
              "name": "otpExpiresAt",
              "type": "uint256"
            }
          ],
          "internalType": "struct TwoFaContract.User",
          "name": "",
          "type": "tuple"
        }
      ],
      "stateMutability": "view",
      "type": "function"
    },
    {
      "inputs": [
        {
          "internalType": "string",
          "name": "_username",
          "type": "string"
        },
        {
          "internalType": "uint256",
          "name": "_otpSeed",
          "type": "uint256"
        },
        {
          "internalType": "address",
          "name": "_publicKey",
          "type": "address"
        }
      ],
      "name": "userRegistration",
      "outputs": [],
      "stateMutability": "nonpayable",
      "type": "function"
    }
  ],
  "bytecode": "0x60a060405234801561001057600080fd5b50604051610c39380380610c3983398101604081905261002f91610043565b61003a816001610075565b60805250610094565b60006020828403121561005857610058600080fd5b5051919050565b634e487b7160e01b600052601160045260246000fd5b81810280821583820485141761008d5761008d61005f565b5092915050565b608051610b846100b56000396000818160a701526104a10152610b846000f3fe608060405234801561001057600080fd5b50600436106100575760003560e01c8063085ba0741461005c578063402c5e58146100855780635e4ee0d4146100a55780636b9c124e146100d4578063956cf0fb146100e9575b600080fd5b61006f61006a366004610684565b6100fc565b60405161007c9190610737565b60405180910390f35b610098610093366004610778565b61017b565b60405161007c91906107ea565b7f00000000000000000000000000000000000000000000000000000000000000005b60405161007c91906107f8565b6100e76100e2366004610806565b6102a2565b005b6100c76100f7366004610684565b6103f8565b6040805160808101825260008082526020820181905291810182905260608101829052906101298361054e565b60009081526020818152604091829020825160808101845281546001600160a01b0390811682526001830154169281019290925260028101549282019290925260039091015460608201529392505050565b6000806101878561054e565b6001600160a01b03851660009081526002602052604090205490915060ff166101cb5760405162461bcd60e51b81526004016101c29061089d565b60405180910390fd5b6000818152602081905260409020600381015442106101fc5760405162461bcd60e51b81526004016101c2906108cf565b80546001600160a01b031633148015610224575060018101546001600160a01b038681169116145b6102405760405162461bcd60e51b81526004016101c290610902565b60028101546001820154600383015460405161026a93926001600160a01b0316919060200161093a565b6040516020818303038152906040528051906020012060001c84036102945760019250505061029b565b6000925050505b9392505050565b60006102ad8461054e565b60008181526001602052604090205490915060ff16156102df5760405162461bcd60e51b81526004016101c2906109a5565b6001600160a01b03821660009081526002602052604090205460ff16156103185760405162461bcd60e51b81526004016101c2906109e9565b60408051608081018252338082526001600160a01b0385811660208085018281528587018a8152426060880181815260008b81528086528a812099518a549089166001600160a01b0319918216178b5594516001808c01805492909a16919096161790975591516002808a01919091559151600390980197909755818352878520805460ff199081168417909155938552909152918590208054909116909117905591517f89105a1c6a3c2fbd471255c66a31ccab604af5697f67d7e2e9a0028c5e4dbd91916103ea91889190610a4f565b60405180910390a250505050565b6000806104048361054e565b60008181526001602052604090205490915060ff166104355760405162461bcd60e51b81526004016101c290610aa3565b6000818152602081905260409020546001600160a01b0316331461046b5760405162461bcd60e51b81526004016101c290610902565b60008181526020819052604090206003810154421161049c5760405162461bcd60e51b81526004016101c290610ae7565b6104c67f000000000000000000000000000000000000000000000000000000000000000042610b0d565b60038201819055600282015460018301546040516000936104f493926001600160a01b03169160200161093a565b60408051601f19818403018152908290528051602090910120915033907f7ea1f4aa00f3fe2cef237cef49e67b086d030c247442a5cb20be7c6a807a6c939061053e9084906107f8565b60405180910390a2949350505050565b600080826040516020016105629190610b42565b60408051601f1981840301815291905280516020909101209392505050565b634e487b7160e01b600052604160045260246000fd5b601f19601f830116810181811067ffffffffffffffff821117156105bd576105bd610581565b6040525050565b60006105cf60405190565b90506105db8282610597565b919050565b600067ffffffffffffffff8211156105fa576105fa610581565b601f19601f83011660200192915050565b82818337506000910152565b600061062a610625846105e0565b6105c4565b90508281526020810184848401111561064557610645600080fd5b61065084828561060b565b509392505050565b600082601f83011261066c5761066c600080fd5b813561067c848260208601610617565b949350505050565b60006020828403121561069957610699600080fd5b813567ffffffffffffffff8111156106b3576106b3600080fd5b61067c84828501610658565b60006001600160a01b0382165b92915050565b6106db816106bf565b82525050565b806106db565b805160808301906106f884826106d2565b50602082015161070b60208501826106d2565b50604082015161071e60408501826106e1565b50606082015161073160608501826106e1565b50505050565b608081016106cc82846106e7565b61074e816106bf565b811461075957600080fd5b50565b80356106cc81610745565b8061074e565b80356106cc81610767565b60008060006060848603121561079057610790600080fd5b833567ffffffffffffffff8111156107aa576107aa600080fd5b6107b686828701610658565b93505060206107c78682870161075c565b92505060406107d88682870161076d565b9150509250925092565b8015156106db565b602081016106cc82846107e2565b602081016106cc82846106e1565b60008060006060848603121561081e5761081e600080fd5b833567ffffffffffffffff81111561083857610838600080fd5b61084486828701610658565b93505060206108558682870161076d565b92505060406107d88682870161075c565b601c81526000602082017f5075626c6963206b6579206973206e6f74207265676973746572656400000000815291505b5060200190565b602080825281016106cc81610866565b600b81526000602082016a13d51408195e1c1a5c995960aa1b81529150610896565b602080825281016106cc816108ad565b600c81526000602082016b24b73b30b634b2103ab9b2b960a11b81529150610896565b602080825281016106cc816108df565b60006106cc8260601b90565b60006106cc82610912565b6106db610935826106bf565b61091e565b600061094682866106e1565b6020820191506109568285610929565b60148201915061096682846106e1565b506020019392505050565b601b81526000602082017f557365726e616d6520616c72656164792072656769737465726564000000000081529150610896565b602080825281016106cc81610971565b601a81526000602082017f4164647265737320616c7265616479207265676973746572656400000000000081529150610896565b602080825281016106cc816109b5565b60005b83811015610a145781810151838201526020016109fc565b50506000910152565b6000610a27825190565b808452602084019350610a3e8185602086016109f9565b601f01601f19169290920192915050565b60408082528101610a608185610a1d565b905061029b60208301846106e1565b601a81526000602082017f557365726e616d65206973206e6f74207265676973746572656400000000000081529150610896565b602080825281016106cc81610a6f565b601d81526000602082017f5761697420666f722074686520636f6f6c20646f776e20706572696f6400000081529150610896565b602080825281016106cc81610ab3565b634e487b7160e01b600052601160045260246000fd5b808201808211156106cc576106cc610af7565b6000610b2a825190565b610b388185602086016109f9565b9290920192915050565b600061029b8284610b2056fea2646970667358221220914e6328ecb2adf1e3c9d7fce85e408077751901173d4eaeab3a3adb984f80c664736f6c63430008140033",
  "linkReferences": {},
  "deployedLinkReferences": {}
}